:020000040800F2
:1000000000000520717900086D680008716800081B
:1000100075680008796800087D6800080000000025
:1000200000000000000000000000000081680008DF
:100030008568000800000000896800088D680008D5
:10004000C1790008C1790008C1790008C1790008A8
:10005000C1790008C1790008C1790008C179000898
:10006000C1790008C1790008C1790008C179000888
:10007000C1790008C1790008C1790008C179000878
:10008000C1790008C1790008C1790008C179000868
:10009000C1790008C1790008C1790008C179000858
:1000A000C1790008C1790008C1790008C179000848
:1000B000C1790008C1790008C1790008C179000838
:1000C000C1790008C1790008C1790008C179000828
:1000D000C1790008C1790008C1790008C179000818
:1000E000C1790008C1790008C1790008C179000808
:1000F000C1790008C1790008C1790008C1790008F8
:10010000C1790008C1790008C1790008C1790008E7
:10011000C1790008C179000891680008C179000818
:10012000C1790008C1790008C1790008C1790008C7
:10013000C1790008C1790008C1790008C1790008B7
:10014000C1790008C1790008C17900089D680008DC
:10015000C1790008C1790008C1790008C179000897
:10016000C1790008C1790008C1790008C179000887
:10017000C1790008C1790008C1790008C179000877
:10018000C1790008C1790008C1790008A968000890
:10019000C1790008C1790008C1790008C179000857
:1001A000C1790008C1790008C1790008C179000847
:1001B000C1790008C1790008C1790008C179000837
:0801C000C1790008C1790008B3
:1001C80010B5054C237833B9044B13B10448AFF389
:1001D80000800123237010BD5C0200200000000095
:1001E800BC7B000808B5034B1BB103490348AFF3B8
:1001F800008008BD0000000060020020BC7B0008F1
:1002080053B94AB9002908BF00281CBF4FF0FF3175
:100218004FF0FF3000F072B9ADF1080C6DE904CE73
:1002280000F006F8DDF804E0DDE9022304B07047C9
:100238002DE9F047089E04468846002B4BD18A4298
:10024800154667D9B2FA82F24AB1C2F1200701FA1B
:1002580002F320FA07F7954047EA030894404FEA6B
:10026800154E230CB8FBFEF71FFA85FC0EFB17880A
:1002780043EA084307FB0CF1994209D9EB1807F147
:10028800FF3080F01B81994240F21881023F2B44D5
:100298005B1AA4B2B3FBFEF00EFB103344EA03442E
:1002A80000FB0CFCA44509D92C1900F1FF3380F0A0
:1002B8000781A44540F2048102382C4440EA0740F3
:1002C800A4EB0C0400271EB1D4400023C6E9004368
:1002D8003946BDE8F0878B4209D9002E00F0EB8043
:1002E8000027C6E9000138463946BDE8F087B3FA69
:1002F80083F7002F47D18B4202D3824200F2FA8063
:10030800841A61EB030301209846002EE0D0C6E969
:100318000048DDE702B9FFDEB2FA82F2002A40F0B7
:100328008F80491B4FEA154E1FFA85F80127B1FB4C
:10033800FEFC230C0EFB1C1143EA014308FB0CF1E5
:10034800994207D9EB180CF1FF3002D2994200F21A
:10035800CD808446591AA3B2B1FBFEF00EFB1014EF
:1003680043EA044408FB00F8A04507D92C1900F11A
:10037800FF3302D2A04500F2B6801846A4EB080469
:1003880040EA0C409FE7C7F1200CBB4022FA0CFE64
:100398004EEA030E01FA07F420FA0CF521FA0CF3E1
:1003A8004FEA1E482543B3FBF8F92C0C08FB193318
:1003B8001FFA8EFA44EA034309FB0AF49C4202FA44
:1003C80007F200FA07F10BD91EEB030309F1FF301E
:1003D80080F087809C4240F28480A9F1020973442E
:1003E8001B1BADB2B3FBF8F008FB103345EA03441E
:1003F80000FB0AFAA24508D91EEB040400F1FF33FA
:100408006BD2A24569D90238744440EA0940A0FB7E
:100418000289A4EB0A044C45C2464B4654D351D03A
:10042800002E69D0B1EB0A0564EB030404FA0CFC56
:10043800FD40FC404CEA0505C6E90054002747E7A3
:10044800C2F1200320FA03F7954001FA02F021FADD
:1004580003F34FEA154E3843010CB3FBFEF71FFABE
:1004680085F80EFB173341EA034107FB08F38B427B
:1004780004FA02F407D9691807F1FF3C2FD28B421E
:100488002DD9023F2944CB1A81B2B3FBFEF00EFBF3
:10049800103341EA034100FB08F38B4207D969187E
:1004A80000F1FF3C17D28B4215D902382944C91AEA
:1004B80040EA07473BE73746304609E70746E7E69D
:1004C8001846FBE64145ABD2B8EB020A69EB0E02CF
:1004D80001381346A4E76046E9E7184695E76746FA
:1004E800D1E781467CE702382C4447E7ACF1020C9F
:1004F8002B442FE7384608E73746E9E6704700BF40
:1005080038B50D4C4FF47A730C49054622780868C3
:10051800B3FBF2F3B0FBF3F000F0E8FA08B90F2DE3
:1005280001D9012038BD002229464FF0FF3000F0E4
:1005380099FA6560002038BD000000208401002081
:10054800074A032008B5136843F48073136000F06A
:1005580075FA0020FFF7D4FF06F06CF9002008BDFB
:10056800003C0240034A044B11681B780B4413609B
:10057800704700BF9802002000000020014B186857
:10058800704700BF9802002038B50446FFF7F6FF11
:100598000546631C02D0044B1B781C44FFF7EEFF92
:1005A800401BA042FAD338BD00000020002800F00C
:1005B8009280F8B5056C0446002D00F08280236C0B
:1005C800DB0604D50023012084F83C30F8BD236CF9
:1005D8004E4A4F491A4023684E4D42F002022264A7
:1005E8004A6822F440324A604A68606802434A60B6
:1005F8005A68216922F48072D4F808C0E7685A6002
:100608005868A66A40EA0120AE425860586820F04F
:1006180040705860596841EA0C015960996821F4A2
:10062800006199609A6842EA07029A6055D0996811
:10063800E06A21F0706199609A6816439E60996833
:1006480021F0405199609A6802439A609968A569B7
:1006580021F0020194F8200099609A6842EA450264
:100668009A60002842D15A6822F400625A60D86A17
:100678000026E56920F4700094F830C06A1E6769A6
:10068800D8623046DD6A45EA0255DD629D6825F488
:1006980000759D60996841EA4C219960996821F438
:1006A800806199609A6842EA87229A606664236C3E
:1006B80023F0030343F001032364002384F83C3050
:1006C800F8BD04F0D3FB6564236C84F83C50DB066A
:1006D8003FF578AF7BE7012070479A6822F0706297
:1006E8009A609A6822F040529A60AFE75868626A46
:1006F80040F40060511E58605A6822F460425A6003
:100708005A6842EA41325A60B1E700BFFDEEFFFF86
:10071800002301400100000F90F83C30002210B483
:10072800012B83B0019270D002680121936880F890
:100738003C10D90714D4374B374C1B689168A4FB7D
:10074800034341F001019B0C916003EB43030193C8
:10075800019B2BB1019B013B0193019B002BF9D11C
:100768009368DB0724D5016C2C4B0B4043F4807352
:10077800036453685C0505D5036C23F4405343F4C4
:1007880080530364036C13F4805328D0436C23F024
:10079800060343646FF022010024214B80F83C409B
:1007A80011605968C90608D1906810F0405018D0F7
:1007B800002003B05DF8044B70471A498A4218D0EC
:1007C8005B68DB06F4D418498A42F1D1886810F0D6
:1007D8004050EDD18B6843F080438B60E9E7436478
:1007E800D8E7936843F08043936003B05DF8044B07
:1007F8007047936813F0405F03D1936843F08043D8
:100808009360074B00205B68D3E7022003B05DF8D4
:10081800044B70478401002083DE1B43FEF8FFFF72
:1008280000230140002001400022014003689A682B
:1008380070B55605054602D59B68DC053CD40C46C8
:10084800FFF79CFE06462A6801E0601C25D1136864
:100858009907FAD56FF0120313602B6C43F40073F9
:100868002B64936813F0405F15D1AB699BB9D36AC9
:1008780013F4700F02D093685B050CD42B6C23F42F
:1008880080732B64286C10F4805004D12B6C43F0D7
:1008980001032B6470BD002070BD24B1FFF76EFE0C
:1008A800801BA042CFD92B6C0022032043F0040305
:1008B80085F83C202B6470BD036C0022012043F0B6
:1008C800200385F83C202B6470BD00BF0368D86CFA
:1008D800704700BF90F83C300022F0B5012B83B080
:1008E800019200F09A800D6801220368092D80F8B2
:1008F8003C20AFB28A6828D805EB45064FF0070CB4
:100908001C690CFA06FC02FA06F624EA0C041C61BF
:100918001A6916431E614E68062E06EB86022DD80C
:10092800053A1F24596B944007FA02F221EA0401A0
:100938005963596B0A435A633C4A934230D00023A7
:1009480080F83C30184603B0F0BD07EB47064FF07F
:10095800070CDC681E3EDFF8D8E00CFA06FC75458B
:1009680024EA0C04DC605BD002FA06F6DA68164367
:10097800DE604E68062E06EB8602D1D90C2E37D8DB
:10098800A2F123041F26196BA64007FA04F221EAF4
:10099800060119631C6B1443244A93421C63CED18D
:1009A800122D33D0224B9D4201D0112DC7D1214A9F
:1009B8001F4953688D4243F400035360BFD102F1CD
:1009C80046721D4B02F52E321B6802F28332A2FBDF
:1009D80003239B0C03EB83035B000193019B002B18
:1009E800ADD0019B013B0193019B002BF9D1A6E7F8
:1009F800A2F141011F26DC6A8E4007FA01F224EABF
:100A08000604DC62D96A0A43DA6295E7D2F804334D
:100A180043F48003C2F8043391E7022003B0F0BD29
:100A2800DE6846EA0266DE6075E700BF0020014026
:100A38001200001000230140840100200749000231
:100A4800074BCA6800F4E06010B44FF6FF04224078
:100A58005DF8044B13431843C860704700ED00E08D
:100A68000000FA05174BDB68C3F3022330B4C3F167
:100A780007051C1D042D28BF0425062C18D9033B87
:100A88004FF0FF349C4022EA04044FF0FF32002864
:100A980002FA05F221EA020101FA03F242EA04022B
:100AA8004FEA0212D2B206DB074B1A5430BC704729
:100AB80000242346E9E700F00F00044B1A5430BC29
:100AC800704700BF00ED00E000E400E014ED00E036
:100AD800002807DB00F01F0101234009024A8B4070
:100AE80042F82030704700BF00E100E00138B0F163
:100AF800807F0DD2074B0022072130B4F025064C29
:100B08005860104684F823509A60196030BC7047CA
:100B18000120704710E000E000ED00E090F835207B
:100B28000346022A03D0802201205A6570470268D2
:100B38000521002083F83510136823F001031360A2
:100B4800704700BF2DE9F04FDFF82CC283B08E4606
:100B58000025DFF82892D1F8008003E00135102D38
:100B680000F0B6800123AB4008EA03018B42F5D1BF
:100B7800DEF8044024F01007022F40F0AC80EF08A4
:100B880005F0070A4FF00F0BDEF8102000EB87077F
:100B98004FEA8A0A3E6A0BFA0AFB02FA0AF24FEA9D
:100BA800450A26EA0B064FF0030B32430BFA0AFB01
:100BB80004F003063A626FEA0B02076806FA0AF6BF
:100BC80017403E4306608668C4F3001706EA020B26
:100BD800DEF80C60AF4006FA0AF646EA0B068660B5
:100BE800466826EA03031F434760C668E700DEF845
:100BF800083002EA060203FA0AF343EA0203C36072
:100C0800ACD5D9F8446025F0030705F003030F229B
:100C180046F4804607F180479B00C9F8446007F511
:100C28009C37D9F8446002FA03FA06F48046019624
:100C3800484E019AB042BA6822EA0A0220D006F564
:100C48008066B0425ED0444EB04260D0434EB0425F
:100C580062D0434EB04264D0424EB0426BD0424E56
:100C6800B0426DD0414EB04260D0414EB0426CD0DF
:100C7800404EB0420CBF09260A2606FA03F31A436F
:100C8800BA60E603DCF800306FEA010205F10105FD
:100C980054BF13400B43A703CCF80030DCF80430F2
:100CA80054BF13400B43E602CCF80430DCF808309C
:100CB80054BF13400B43A402CCF80830DCF80C30C6
:100CC80054BF13400B43102DCCF80C307FF44AAFBF
:100CD80003B0BDE8F08F4FEA450A0322D0F800B010
:100CE800013F04EA020602FA0AF2012F6FEA020241
:100CF80006FA0AF602EA0B0B46EA0B0606603FF60E
:100D080074AF60E7012606FA03F31A43B8E7022630
:100D180006FA03F31A43B3E7032606FA03F31A4362
:100D2800AEE7042606FA03F31A43A9E7072606FAEC
:100D380003F31A43A4E7052606FA03F31A439FE7C9
:100D4800062606FA03F31A439AE7082606FA03F377
:100D58001A4395E70000024000080240000C0240D8
:100D6800001002400014024000180240001C02401B
:100D78000020024000240240003C014000380240AC
:100D88000369194214BF01200020704702B9090401
:100D98008161704770B505460C461646286801E023
:100DA800631C20D183699906FAD510222023C261D9
:100DB800C36183699A0701D5002383628369DB07CE
:100DC80024D543680022144C2021234043606B6CD7
:100DD80085F8402043F004036B6485F8411085F8DA
:100DE8004220012070BDFFF7C9FB801B844201D35C
:100DF800002CD3D16B6C202100220B4385F84020B6
:100E08006B6485F8411085F84220EAE7836943F06E
:100E180001038361D5E700BF00E800FE70B5054611
:100E28000C46164601E0611C11D12B689A6992079D
:100E38000BD49B69D806F6D5324621462846FFF7DB
:100E4800A9FF0028EFD0012070BD002070BDFFF77A
:100E580095FB801BA04201D8002CE6D16B6C2021A9
:100E6800002201200B4385F840206B6485F841106F
:100E780085F8422070BD00BFF8B505460C461646F9
:100E88000BE09B69DB0602D5FFF784FFD8B9FFF7B3
:100E980075FB801BA04209D844B12B683246214615
:100EA80028469F69BF06ECD50020F8BD6B6C202151
:100EB800002201200B4385F840206B6485F841101F
:100EC80085F84220F8BD0120F8BD00BF2DE9F041AA
:100ED80080460F4616461D46D8F8004001E06B1CB8
:100EE8000AD1A06937EA00030CBF01200020B042F4
:100EF800F5D00020BDE8F081FFF740FB069BC01A43
:100F0800A84201D8002DE7D1D8F84430202100228A
:100F180001200B4388F84020C8F8443088F8411075
:100F280088F84220E6E700BF00284DD0F8B590F8D1
:100F38004130044603F0FF02002B40D02421E5682D
:100F4800D4E9003284F84110012D186822F070614C
:100F5800A26820F0010018601961996821F4004125
:100F6800996028D042F40442022D9A6002D14FF4CD
:100F780000625A605A68002114482027A669104365
:100F8800D4E9042558602A43D868E56942EA06226C
:100F9800266A20F400403543D8600846DA601D60B0
:100FA8001A6842F001021A60616484F84170216392
:100FB80084F84210F8BD42F400429A60DAE780F8FB
:100FC800402004F05BF9B9E7012070470080000277
:100FD8002DE9F04390F8414083B0202C70D190F86F
:100FE8004040012C6CD04FF0010904461F46904642
:100FF80080F840900E46FFF7C1FA4A460546009031
:1010080019234FF400412046FFF760FF00285BD109
:1010180010232122C4F82480C6F3090684F841204D
:1010280084F8423060646785638D6063FF2B2168B4
:101038005BD94B68FF203D4F3D4A3B4020853243FA
:1010480013434B60DFF8F490DFF8F48049EA0609AF
:10105800638D2A460A9920469BB2002B53D0FFF78E
:10106800DDFE002830D1626A276812F8011B238D43
:10107800B962618D013B626201399BB289B22385F5
:101088006185618D89B2002BE2D10029E0D002464A
:1010980000950A9B80212046FFF718FF46F0007C48
:1010A8004FF0FF0E80B9618D2268714510D95368E1
:1010B800A4F828E003EA080343EA09035360C7E7F2
:1010C800022003B0BDE8F083012003B0BDE8F0833F
:1010D800618D536889B203EA0803C8B2218543EADF
:1010E8000C0343EA00435360B2E7628D0F4F4B682D
:1010F80092B210483B4022853043D2B2034343EAC0
:1011080002434B609EE7FFF7B7FE0028DCD1236857
:101118002021094DD9615A682A405A6084F8411043
:1011280084F8400084F84200CBE700BF009800FC38
:101138000020FF810020008200E800FE0000FF017F
:10114800009C00FC90F84130DBB2202B70B41FD11A
:1011580090F84020012A1BD002682424002680F839
:1011680041401568344625F001051560156825F4D9
:1011780080551560156829431160116841F0010117
:10118800116080F8406080F84130204670BC70479C
:101198000224204670BC704790F84130DBB2202B07
:1011A80070B41ED190F84020012A1AD00268242475
:1011B800002680F841401468354624F00104146084
:1011C800146824F4706444EA01211160116841F044
:1011D8000101116080F8406080F84130284670BCF9
:1011E80070470225284670BC704700BFF0B58BB029
:1011F800002800F0848090F8BD33044603F0FF0215
:10120800002B77D00323254620686F4684F8BD332A
:10121800261D02F01FFC55F810EBAC46BCE80F0089
:101228000FC7BCE80F000FC79CE8030087E803005E
:10123800704696E80E0002F047FB074630B10125DC
:101248000223284684F8BD330BB0F0BD0146206860
:1012580002F008FC606860B339464FF0010C3A466A
:10126800C1EBC1034F1C04EB830383F83C10A3F8C4
:101278004210F9B283F83DC0814283F83F201A65D5
:10128800C3E91122ECD300221146C2EBC203571C5A
:1012980004EB830383F8FC21FAB283F8FD11824240
:1012A80083F8FF11C3F80412C3F80812C3F8101228
:1012B800EBD36F46D4F800C00FCD0FC70FCD0FC7C3
:1012C80095E8030087E80300604696E80E0002F000
:1012D800E1FB05460028B2D10122636A84F8380090
:1012E800934284F8BD230ED0206802F071FF28468F
:1012F8000BB0F0BD80F8BC2306F0D2F882E70125D8
:1013080028460BB0F0BD204600F022FDECE700BFF8
:1013180090F8BC33012B0ED0012310B504460068A9
:1013280084F8BC3302F048FF206802F08BFB0020F1
:1013380084F8BC0310BD0220704700BF2DE9F04FB0
:10134800066889B00446304602F080FF10B109B043
:10135800BDE8F08F0546206802F046FF0028F6D069
:10136800206802F041FF10F0020F206803D04369A3
:1013780003F00203436102F037FF10F4002B2068EA
:1013880040F0CE8102F030FF430300F12481D4F80D
:1013980000A0504602F028FF0028C0F29C80206878
:1013A80002F022FF000563D4206802F01DFF02014D
:1013B80013D5226894F8F413536903F0006353615A
:1013C80000295FD1536D01212046C3F3830384F8BC
:1013D800F413C4F8F83306F0C1F9206802F004FFEA
:1013E800C30400F1A680206802F0FEFE10F4005F3E
:1013F800206840F0848002F0F7FE10F0100F20689B
:1014080011D0836923F010038361356AC5F3434320
:1014180005F00F07022B3ED0062B00F0AB82836944
:1014280043F01003836102F0DFFE070700F1C28179
:10143800206802F0D9FEC60200F1B181206802F0EE
:10144800D3FE850200F1BF81206802F0CDFE400086
:1014580000F1B880206802F0C7FE41077FF577AF3A
:1014680023685D686A0711D45A682A435A606EE790
:10147800D6F80838D9072AD42068436903F40063EA
:10148800436192E7204606F07FF8A6E7204606F07B
:10149800A3F82368E8E747F6F0731D42BFD0C7EB0F
:1014A800C707C5F30A15304604EB87072A46D7F85D
:1014B800081202F001FED7F80822D7F814322A449D
:1014C80020681D44C7F80822C7F81452A7E7204629
:1014D80006F05AF8D0E794F8F413D6F8042801294E
:1014E80022F00102C6F8042800F00182204606F026
:1014F80063F82068436903F00043436150E702F052
:10150800A9FE206802F0B8FB002840F0E381E06003
:10151800256800F00DFF227B0146284602F012FAEA
:10152800204606F01BF82068436903F40053436122
:1015380061E706F500677B682068102123F0010346
:101548007B6002F087FBD4F804C0BCF1000F15D013
:1015580006F510634FF67F31996001351A6820331C
:10156800654522F4001243F8202CC3F8E811D3F89B
:10157800E02122F40012C3F8E021EDD1FB69226BCF
:1015880043F00113FB61002A00F0A781D7F88430EB
:1015980043F00B03C7F884307B6C43F00B037B6488
:1015A800D6F8003804F57172217C23F4FE632068B4
:1015B800C6F8003802F06AFE2068436903F48053D5
:1015C800436111E7204606F003F82068436903F0F9
:1015D800804343613FE7206802F012FE81460028FD
:1015E80000F0E78106F51063D4F800A0A0464FF09C
:1015F800000B0595CDE9033607E05FEA59090BF1C1
:10160800010B08F11C0800F01D8119F0010FF4D03E
:101618005FFA8BF65046314602F004FEC7070546CE
:1016280000F1DC80D4F800A05746280704D5039BB6
:10163800082203EB4B139A60E90604D5039B10229A
:1016480003EB4B139A606A0604D5039B402203EB15
:101658004B139A60AB0704D5039B022203EB4B1391
:101668009A602D06C9D5D8E914239342C5D8D51A4E
:10167800D8F8440007EB4B118542AC4601F51061E0
:1016880028BF8446069189690CF1030C89B2B1EB35
:101698009C0F35D3934233D292B3CDF81CB0D8F80F
:1016A8004810DDF818B00BE0D8F850209A42A2EBA9
:1016B800030540F27881002A00F07581D8F84400CB
:1016C8008542324628BF0546207CABB2009038469A
:1016D80002F0DCFCDBF81820D8F84810E81CD8F831
:1016E800543092B229442B44B2EB900FC8F84810FA
:1016F800C8F85430D8D2DDF81CB0D8F85020276884
:101708009A4200F254810AF500610BF00F020120A1
:101718004B6BBA4600FA02F223EA02034B636CE70A
:1017280002F066FD0746002800F0478120684FF068
:10173800000B06F5306ACDE9036504E07F080BF17C
:10174800010B00F08280FD07F8D55FFA8BF6314671
:1017580002F05EFD10F0010F804679D100F0080319
:10176800002B40F09A80206818F0100F03D00AEB85
:101778004B1310229A6018F0200F07D02169012915
:1017880000F00B810AEB4B1320229A6018F4005FDB
:10179800D4D00AEB4B134FF400529A60CEE72046A0
:1017A8005FFA8BF105F010FF2068436903F480139A
:1017B800436144E6204605F0CDFE2068436903F006
:1017C8000803436135E620465FFA8BF105F0F8FE21
:1017D8002068436903F40013436136E6049B01273C
:1017E8000BF00F00039AD3F8341807FA00F002EB55
:1017F8004B1221EA00012069C3F83418B842134695
:101808009F6004D1D8E911231344C8F84830314601
:10181800204605F095FE23692768012B02D1BBF10C
:10182800000F01D0BA4600E7236DBA46002B7FF4BB
:10183800FCAE384604F57172012102F027FD2768D5
:10184800BA46F2E6DDE90465A3E5DDE9036599E555
:1018580020684FEA4B192169012200F5306E0AEB26
:101868000905012908F00803F144AA60D0F840E00E
:10187800D9F8082064D074498E4507D1110400F1C5
:10188800D380910602D52021C9F808103146204698
:10189800059305F04BFE059B62E723684FEA4B1959
:1018A800226903F530610AEB0905012A1B6C89449A
:1018B800D9F808103DD0644A93421FD020460593BA
:1018C80005F02EFE614A059B934220D80823206824
:1018D800AB6049E70323E3601AE67A6942F22B0317
:1018E80013437B613B6943F00B033B6158E60021DE
:1018F800204684F8F41305F031FFFAE50A0403D50D
:101908004FF40043C9F80830204605F009FE216964
:101918000129DBD104F57172206802F0B7FCD5E724
:101928002022C9F80820002B3FF41EAF036CD9F819
:101938000810464A9342E1D8204605F0F1FDC5E774
:1019480011073DD541498E4505D9100403D54FF4FB
:101958000042C9F808202046059305F0E1FD04F58A
:1019680071720121206802F091FC0822059BC9F8D8
:101978000820F5E6C7EBC707082204F57171304661
:1019880002F09AFBC5F30A1304EB87022068D2F829
:1019980014120B44C2F8143241E504F5717202F0D6
:1019A80075FC2068EEE6DDF81CB02768A8E6BA46A4
:1019B80023E68346D4F800A0EBE483462068E1E4FC
:1019C8009106ADD412F0280FADD120498E4501D92A
:1019D800120434D44FF01C0CD9F810E031462046DC
:1019E8000CFB0B4CCEF3120E0593DCF80422DCF84A
:1019F8000852A2EB0E0E2A44CCF814E2CCF80822C6
:101A080005F094FD059BBBF1000F7FF4A9AED4F857
:101A18001022002A7FF4A4AE04F571720121206817
:101A280002F034FC059B9BE64FF40042C9F80820FD
:101A3800002B3FF499AE036CD9F808103BE74FF43C
:101A48000042C9F808206EE70A31544F0A30544F53
:101A580090F8BC23012A0DD0012210B5044684F861
:101A68003810006884F8BC2302F094FB002084F846
:101A7800BC0310BD02207047F8B501F00F04090639
:101A8800C4EBC4054FEA850522D405F5FE71C4EB05
:101A9800C405002600EB8505014485F8FD614D78F5
:101AA8000C708A60CB7005B1CC80022B01D1002369
:101AB8000B7190F8BC33012B15D004460123006844
:101AC80084F8BC3302F0E4F8002084F8BC03F8BDC5
:101AD800C4EBC40605F13C01012700EB860501446F
:101AE80085F83D70DBE70220F8BD00BF01F00F026A
:101AF800090638B5C2EBC2034FEA830319D403F5CC
:101B0800FE71C2EBC203002400EB8303014483F897
:101B1800FD410A7090F8BC33012B19D0044601230B
:101B2800006884F8BC3302F0F5F8002084F8BC03A0
:101B380038BD03F13C01C2EBC204012500EB84036C
:101B4800014483F83D500A7090F8BC33012BE5D16D
:101B5800022038BD70B501F00F0500261C21C5EB29
:101B6800C50401FB050100EB840401F5FE71C4F80E
:101B78000822C4F8103284F8FC51C4F8146284F8BE
:101B8800FD6103690068012B08BFC4F80C22DAB2B2
:101B98001DB102F0F3F8002070BD02F0EBF900204F
:101BA80070BD00BF01F00F01C1EBC10100EB810165
:101BB800D1F81402704700BFF8B501F00F050126EF
:101BC80000271C21C5EBC50401FB050100EB8404BB
:101BD8003C31A264236584F83C50676584F83D6015
:101BE80003690068B34208BFE264DAB21DB102F0CB
:101BF800C5F80020F8BD02F0BDF90020F8BD00BF0F
:101C080038B5436801F00F059D421FD80B061FD455
:101C1800C1EBC1031C24002204FB010100EB830378
:101C280001F5FE7183F8FD2101230D708B7090F88A
:101C3800BC239A421ED0044680F8BC33006802F0E8
:101C48004DFACDB1002084F8BC0338BD012038BD61
:101C58001C21C5EBC503012201FB050100EB830331
:101C68003C3183F83D2001230D708B7090F8BC2324
:101C78009A42E0D1022038BD04F57172217C2068B7
:101C880002F004FBDEE700BF38B501F00F0243683D
:101C98009A4221D8C2EBC20309064FEA83031DD436
:101CA80003F5FE73C2EBC2040025C11800EB8403E0
:101CB80083F8FD5100250A708D7090F8BC33012B14
:101CC8001CD004460123006884F8BC3302F036FABD
:101CD80084F8BC53284638BD012038BDC2EBC20485
:101CE8003C33012500EB8404C11884F83D500025DD
:101CF8000A708D7090F8BC33012BE2D1022038BDF8
:101D080030B4056812046C6AC1B1AB6A013904EBDE
:101D180013440BD0002303F14000013305EB80008E
:101D2800DBB240688B4204EB1044F4D340311443D7
:101D3800002005EB81014C6030BC70471443002043
:101D4800AC6230BC704700BF03680020596270471E
:101D580003680121084A30B4C0F8FC1304469969A5
:101D6800002541F0006184F8F45328469961596DC3
:101D78000A4330BC5A657047030000101B4A1C4BCD
:101D8800116C41F0805130B5116483B0126C1C465F
:101D980002F080520192019A1A6842F480321A6065
:101DA800FEF7ECFB054605E0FEF7E8FB401BB0F547
:101DB8007A7F17D86368DA03F6D523680C4D43F4A5
:101DC80000332360FEF7DAFB044605E0FEF7D6FB96
:101DD800001BB0F57A7F05D86B689B03F6D5002009
:101DE80003B030BD032003B030BD00BF003802404F
:101DF80000700040002800F0348103682DE9F041AC
:101E0800DD0782B0044635D5AB498A6802F00C027A
:101E1800042A00F0FE808A6802F00C02082A00F00A
:101E2800F4806368B3F5803F10D0002B00F01B816D
:101E3800B3F5A02FA04B1A6800F0628122F480321B
:101E48001A601A6822F480221A6004E09A4A136819
:101E580043F480331360FEF791FB974D064605E087
:101E6800FEF78CFB801B642800F2EE802B689A0337
:101E7800F6D523689F0742D41A0717D56369002B44
:101E880000F0B0808C4B5A6F1D4642F001025A6731
:101E9800FEF774FB064605E0FEF770FB801B022880
:101EA80000F2D2806B6F9B07F6D523685D076BD570
:101EB800814B1A6CD00000F1ED801A6C012542F0BC
:101EC80080521A641B6C03F080530193019B7B4B77
:101ED8001A68D10540F1A780A368012B39D0002BDF
:101EE80000F0DA80052B744B1A6F00F0118122F094
:101EF80001021A671A6F22F004021A672EE06E4A6E
:101F0800916811F00C0F62D0916801F00C0108295A
:101F18005AD0E368002B00F0DF80674B1A681D4633
:101F280042F001021A60FEF729FB064605E0FEF7BB
:101F380025FB801B022800F287802B689807F6D5BE
:101F48002B68226923F0F80343EAC2032B60236855
:101F580092E7594A136F43F001031367FEF70EFB2C
:101F6800554E804641F2883705E0FEF707FBA0EBA7
:101F78000800B84268D8336F9B07F6D525B14E4A9A
:101F8800136C23F080531364A369CBB14A4A916858
:101F980001F00C01082921D0022B136800F0C08041
:101FA80023F0807314461360FEF7E8FA054604E050
:101FB800FEF7E4FA401B022846D823689B01F7D4B1
:101FC800002002B0BDE8F08152685602A1D43A4A16
:101FD800126895073CD5E268012A39D0012002B081
:101FE800BDE8F081344B5A6F1D4622F001025A6752
:101FF800FEF7C4FA064604E0FEF7C0FA801B022882
:1020080022D86B6F9F07F7D44FE74A6850027FF5D5
:1020180008AF294A126891037FF52CAF6268002A3D
:102028007FF428AFDAE71A681E4642F480721A6015
:10203800FEF7A4FA07463368DA053FF54DAFFEF719
:102048009DFAC01B6428F6D9032002B0BDE8F081D0
:10205800194920690A6822F0F80242EAC0020A60B7
:102068000AE701207047144B1A681D4622F4803293
:102078001A601A6822F480221A60FEF77FFA064670
:1020880004E0FEF77BFA801B6428DDD82B689B03ED
:10209800F7D4EEE600251AE7074B41F288381A6FA5
:1020A8001E4622F001021A671A6F22F004021A670C
:1020B800FEF764FA074608E0003802400070004066
:1020C800FEF75CFAC01B4045BED8336F9807F7D4BB
:1020D800002D3FF459AF52E72B4B1A681D4622F0EA
:1020E80001021A60FEF74AFA064604E0FEF746FACD
:1020F800801B0228A8D82B689907F7D42368BBE669
:1021080042F480221A601A6842F480321A60A2E609
:1021180042F004021A671A6F42F001021A671DE7BB
:1021280023F0807315461360FEF728FA064604E08C
:10213800FEF724FA801B022886D82B689901F7D469
:10214800D4E90732606A1343D4E90A2143F0005303
:102158000D4C520843EA8013013A43EA016343EA0B
:1021680002436B602B6843F080732B60FEF706FA1E
:10217800054605E0FEF702FA401B02283FF664AF69
:1021880023689A01F6D51BE700380240164908B5BE
:102198008B6803F00C03042B1BD0082B17D14A685B
:1021A8004B6802F03F02496813F4800313D10F48CB
:1021B800C1F38811A1FB0001FEF722F80A4B5B6806
:1021C800C3F3014301335B00B0FBF3F008BD0748DC
:1021D80008BD074808BD0648C1F388110023A1FBC4
:1021E8000001FEF70DF8E9E7003802400024F4008A
:1021F80040787D0178B14A4A136803F00F038B4297
:102208000BD2136823F00F030B431360136803F01A
:102218000F038B4201D00120704703682DE9F0417C
:102228009D0714D55C0704D53E4CA26842F4E052E1
:10223800A2601A0704D53B4CA26842F46042A2602F
:10224800384C8568A26822F0F0022A43A260DF07B2
:1022580004460D4621D54268324B012A1B6856D0E8
:10226800022A59D0990728D52E4941F288388B6817
:102278000E4623F0030313438B60FEF77FF90746EE
:1022880004E0FEF77BF9C01B404543D8B368626899
:1022980003F00C03B3EB820FF3D1214A136803F068
:1022A8000F03AB420CD9136823F00F032B431360C1
:1022B800136803F00F03AB4202D00120BDE8F081A0
:1022C80023685A0706D51749E0688A6822F4E0525D
:1022D80002438A601B0711D4FFF758FF114B1249BC
:1022E8009B68124AC3F30313CB5C20FA03F3002064
:1022F8001360FEF705F90020BDE8F081094A21695D
:10230800936823F4604343EAC1039360E4E79E03C0
:10231800AAD4D2E70320EFE79801A5D4CDE700BF00
:10232800003C024000380240F87B0008840100208D
:10233800014B1868704700BF84010020044B054A10
:102348009B680549C3F382230868D35CD84070476B
:1023580000380240087C000884010020044B054A2C
:102368009B680549C3F342330868D35CD84070477B
:1023780000380240087C00088401002003682DE929
:10238800F04313F0010683B004460BD0B84A9168B5
:1023980021F400019160466B91683143B6FA86F6E4
:1023A8007609916013F4002510D0B149E56BD1F896
:1023B8008C20B5F5801F22F4401242EA0502C1F8CC
:1023C8008C2000F0B081B5FA85F56D09D90210D5D9
:1023D800A748216CD0F88C20B1F5800F22F4400278
:1023E80042EA0102C0F88C2000F09B81002908BF56
:1023F800012513F0807F18BF01269A0600F1498154
:10240800D9060CD59A4AD2F88C1021F08071C2F8FE
:102418008C10D2F88C10A06B0143C2F88C105A04AF
:1024280008D59349606ED1F8902022F440320243D7
:10243800C1F890201F0408D58D49A06ED1F89020CE
:1024480022F440220243C1F89020D80308D58849D5
:10245800E06ED1F8902022F440120243C1F8902097
:10246800990308D58249206FD1F8902022F44002C0
:102478000243C1F890205A0608D57D49606CD1F80E
:10248800902022F003020243C1F890201F0608D5CD
:102498007749A06CD1F8902022F00C020243C1F8D1
:1024A8009020D80508D57249E06CD1F8902022F028
:1024B80030020243C1F89020990508D56C49206D77
:1024C800D1F8902022F0C0020243C1F890205A05AA
:1024D80008D56749606DD1F8902022F44072024314
:1024E800C1F890201F0508D56149A06DD1F890204A
:1024F80022F440620243C1F89020D80408D55C4910
:10250800E06DD1F8902022F440520243C1F89020A7
:10251800990408D55649206ED1F8902022F44042FB
:102528000243C1F890205A0208D55149A06FD1F84A
:10253800902022F080620243C1F890209F020CD5BF
:102548004B49E06FD1F89020B0F1006F22F00062A3
:1025580008BF01250243C1F8902013F0080F18BFE7
:102568000125580308D54249606FD1F8902022F020
:1025780040720243C1F8902019020BD4B3F1007FD6
:1025880016D0F20714D4012D00F0D080002003B03B
:10259800BDE8F0833649B3F1007FD4F88000D1F864
:1025A800902022F0805242EA0002C1F89020E8D13F
:1025B8002F4B1A681E4622F080621A60FDF7DEFF74
:1025C800074604E0FDF7DAFFC01B64285DD83368CE
:1025D8001B01F7D42368DF0712D5626B82B9D6F8DE
:1025E8008420D6F8847002F44032606807F070677F
:1025F800A1683A4342EA801242EA0172C6F884208E
:102608001E0300F11181D80204D5226CB2F5800FA7
:1026180000F00F81D90111D5154E6068D6F88420D5
:10262800D6F8847002F07062216907F0E0473A43F7
:1026380042EA801242EA0142C6F884209A010DD586
:10264800236962681B04D4E9021043EA8213084A2A
:1026580043EA006343EA0173C2F88430044B1A6802
:102668001E4642F080621A60FDF788FF074606E0C2
:1026780000380240FDF782FFC01B642805D8336884
:102688001B01F7D5012D81D150E0032003B0BDE82F
:10269800F083874A874B116C1F4641F080511164C3
:1026A800126C02F080520192019A1A6842F4807208
:1026B8001A60FDF763FF804605E0FDF75FFFA0EBBA
:1026C80008006428E1D83B68DB05F6D5784A236B17
:1026D800116F03F4407011F4407111D088420FD08B
:1026E800116F176F21F4407147F480371767176F20
:1026F80027F4803717671167116FCF0700F1C38080
:10270800B0F5407F00F0B18069498A6822F4F81278
:102718008A60674AC3F30B03116F0B43136723687F
:102728006EE6012665E6002501264FE6604B1A682D
:102738001D4622F080521A60FDF720FF064604E08D
:10274800FDF71CFF801B64289FD82B689F00F7D4D7
:1027580023681D0300F19280D8021DD5226CDAB9D6
:1027680053496569D1F88820D1F8886002F440326D
:10277800A06906F0E046324342EA851242EA006266
:10278800C1F88820D1F88C20A06A22F4F8520138C8
:1027980042EA0022C1F88C20990215D5E26FB2F105
:1027A800006F11D142496569D1F88820D1F8886055
:1027B80002F07062206A06F0E046324342EA85126F
:1027C80042EA0042C1F888201A0719D5384A6569D3
:1027D800D2F88810D2F8883001F07061E06903F40B
:1027E80040330B4343EA851343EA0073C2F8883049
:1027F800D2F88C30E16A23F440330B43C2F88C30B2
:102808002B4B1A681C4642F080521A60FDF7B6FE40
:10281800054605E0FDF7B2FE401B64283FF635AFDC
:1028280023689B00F6D5B1E6E26BB2F5801F7FF412
:10283800EAAE1F4E6068D6F88420D6F8847002F499
:102848004032E16807F0E0473A4342EA801242EA40
:102858000162C6F88420D6F88C10626A21F01F0144
:10286800013A0A43C6F88C20D4E611481249826816
:10287800194022F4F8120A4382604AE7E26B002A00
:102888003FF46EAF68E7174641F28838FDF776FEE9
:10289800814606E0FDF772FEA0EB090040453FF6D1
:1028A800F4AE3B6F9807F5D5236B03F4407027E728
:1028B8000038024000700040FFFCFF0FF0B4046ACB
:1028C8008D6824F001040E68124A0462036A4468A1
:1028D80023F0020387692B430F4D3A40A84242EA8E
:1028E80006020AD005F58065A84206D0496844600A
:1028F800826141630362F0BC704723F00803CF682C
:102908004D6924F440748E693B43354323F0040336
:102918002C43EBE78CFFFEFF00000140F0B4046A93
:102928008D6824F480740E68144A0462036A44684B
:1029380023F40073C76943EA0523114D3A40A842BE
:1029480042EA06020AD005F58065A84206D0496821
:102958004460C261C1630362F0BC704723F4006342
:10296800CF684D6924F440548E6943EA0723354300
:1029780023F4806344EA0514E9E700BF8CFFFEFFF7
:1029880000000140F0B4046A8D6824F480540E6895
:102998000F4A0462036A446823F40053C76943EA90
:1029A80005330C4D3A40A84242EA06220AD005F502
:1029B8008065A84206D049684460C2610164036228
:1029C800F0BC704724F480444D6944EA8514F2E76A
:1029D800FF8CFFFE00000140F0B4046A8D6824F407
:1029E80080340E680F4A0462036A446823F4003393
:1029F800476D43EA05430C4D3A40A84242EA0602B5
:102A08000AD005F58065A84206D049684460426549
:102A180081650362F0BC704724F480344D6944EA50
:102A28000524F2E78FFFFEFF00000140F0B4046ABE
:102A38008D6824F480140E680F4A0462036A44689F
:102A480023F40013476D43EA05530C4D3A40A8425E
:102A580042EA06220AD005F58065A84206D04968F0
:102A680044604265C1650362F0BC704724F4802469
:102A78004D6944EA8524F2E7FF8FFFFE000001401C
:102A88000368094AD96841F00101D96099680A4088
:102A9800062A06D0B2F5803F03D01A6842F0010238
:102AA8001A600020704700BF070001000368012278
:102AB80001F01F01186A02FA01F120EA010010B4BE
:102AC80018620F4C1A6AA34241EA0201196212D035
:102AD8000C4A93420FD099680B4A0A40062A06D03E
:102AE800B2F5803F03D01A6842F001021A60002054
:102AF8005DF8044B70475A6C42F400425A64EAE7A6
:102B0800000001400004014007000100FFF7CEBFAC
:102B180010B4044601F01F010122194823688A40B5
:102B2800196A834221EA020119621A6A1A6217D0E5
:102B3800144A934214D0196A41F21112114208D171
:102B4800196A40F24442114203D11A6822F0010284
:102B58001A600123002084F83D305DF8044B70476B
:102B6800196A41F211121142E5D1196A40F2444240
:102B78001142E0D15A6C22F400425A64DBE700BFEC
:102B88000000014000040140704700BF704700BFCB
:102B9800704700BF704700BF03681A69910710B5F6
:102BA800044602D5DA68920768D41A69520702D532
:102BB800DA6850074FD41A69110702D5DA68120784
:102BC80037D41A69D00602D5DA68D1061ED41A6934
:102BD800D20702D5DA68D00769D41A69110602D576
:102BE800DA6812066BD41A69D00502D5DA681106BC
:102BF8006DD41A69520602D5DA6850066FD41A697C
:102C0800910602D5DA68920649D410BD6FF010011A
:102C1800082220461961DB69227713F4407F6FD1BF
:102C2800FFF7B2FF2046FFF7B3FF002223682277A1
:102C3800CDE76FF00801042220461961DB6922778D
:102C48009B075AD1FFF7A0FF2046FFF7A1FF0022FC
:102C580023682277B5E76FF0040102222046196144
:102C68009B69227713F4407F44D1FFF78DFF2046FC
:102C7800FFF78EFF0022236822779CE76FF002019E
:102C8800012219619B690277990730D1FFF77CFF10
:102C98002046FFF77DFF00222368227785E76FF043
:102CA800200220461A61BDE8104000F017BA6FF004
:102CB800010220461A6103F045FD23688DE76FF095
:102CC800800220461A6100F00BFA23688BE76FF444
:102CD800807220461A6100F005FA236889E76FF0D0
:102CE800400220461A61FFF755FF236887E7FFF780
:102CF8004DFFD0E7FFF74AFFBCE7FFF747FFA6E71E
:102D0800FFF744FF91E700BFF0B4324EB0F1804FB7
:102D1800314FA0EB06060368A0EB0707B6FA86F664
:102D2800B7FA87F74FEA56164FEA571725D026BB4A
:102D38002A4A90423ED002F5806290423AD002F58B
:102D4800806290423BD0002F39D1254A904218D05A
:102D580002F58062904214D002F58062904210D051
:102D6800A2F5983290420CD002F58062904208D0C9
:102D780002F58062904208D103E023F070034D68A9
:102D88002B4323F44073CD682B434A6923F0800317
:102D98008C6813430A680360C462826226B91FB94B
:102DA8000123F0BC436170470B6903630123F0BC46
:102DB8004361704723F070034A681343E1E7094A07
:102DC80023F070034C68904243EA0403D9D0002FE3
:102DD800D7D1BAE7000001400004014000040040D8
:102DE80000400140000C0040B8B190F83D3010B5EB
:102DF80003F0FF0204465BB102232068211D84F81A
:102E08003D30FFF781FF0123002084F83D3010BDDD
:102E180080F83C2003F09AFEEEE70120704700BFDF
:102E2800B8B190F83D3010B503F0FF0204465BB12D
:102E380002232068211D84F83D30FFF765FF012338
:102E4800002084F83D3010BD80F83C2003F0F4FDEC
:102E5800EEE70120704700BFF0B4046A8D6824F0E3
:102E680010040E68144A0462036A446823F02003BD
:102E7800876943EA0513114D3A40A84242EA0622FF
:102E88000AD005F58065A84206D049684460826189
:102E980081630362F0BC704723F08003CF684D69FB
:102EA80024F440648E6943EA0713354323F0400352
:102EB80044EA8504E9E700BFFF8CFFFE00000140FB
:102EC80038B590F83C30012B00F08D800D46022378
:102ED8000121044680F83D3080F83C10142A1DD8A2
:102EE800DFE802F00B1C1C1C371C1C1C4A1C1C1C99
:102EF8005C1C1C1C6F1C1C1C240029460068FFF766
:102F0800DDFC23682869996941F00801996199698C
:102F180021F0040199619A6902439A610023012210
:102F2800184684F83D2084F83C3038BD29460068AE
:102F3800FFF77CFD23682869596D41F400615965E4
:102F4800596D21F4806159655A6D42EA00225A652B
:102F5800E4E729460068FFF77FFF23682869996935
:102F680041F400619961996921F4806199619A69D4
:102F780042EA00229A61D1E729460068FFF7CEFCB1
:102F880023682869D96941F00801D961D96921F014
:102F98000401D961DA690243DA61BFE729460068AA
:102FA800FFF7F0FC23682869D96941F40061D96109
:102FB800D96921F48061D961DA6942EA0022DA61CB
:102FC800ACE729460068FFF707FD23682869596DB3
:102FD80041F008015965596D21F0040159655A6D90
:102FE80002435A659AE7022038BD00BF90F83C308A
:102FF800012B25D00268022370B4134D80F83D30B0
:10300800AA425368946816D005F58065AA4212D082
:103018000D6824F08004896823F0700301262B438F
:10302800214300255360916080F83D6080F83C5052
:10303800284670BC704723F470034D682B43E7E7BC
:1030480002231846704700BF0000014090F83C304A
:10305800012B3BD070B4D1E90253D1E9002423F409
:1030680040730E692B434D6923F4806323438C6AB4
:1030780023F4006313438A6923F4805333430668B7
:1030880023F400532B43134D23F48043AE4243EA09
:10309800040323F4702343EA024309D00E4A9642FC
:1030A80006D00022736480F83C20104670BC70473C
:1030B8004A6A23F47003CC6943EA02530A6A23F08C
:1030C8008073234323F000731343EAE7022318466F
:1030D800704700BF0000014000040140704700BF76
:1030E800704700BF704700BF836F202B37D100297E
:1030F80033D0B2FA82F35B09002B2ED130B490F8AA
:103108007040012C42D084680125A0F85820B4F5FD
:10311800805FA0F85A204165036680F87050026805
:103128001FD0002C2CD10369002B3CD07F23A0F8A2
:103138005C3022230021C1678367936843F0010351
:1031480093601E4B03661168002341F4907180F868
:1031580070301846116030BC70470120704702205B
:1031680070470169A1B92223C16740F2FF141449CD
:1031780083679368A0F85C402B4393600166E2E79D
:10318800B4F1805F13D0A0F85C30D2E70220E2E708
:103198002224C367FF2184679368A0F85C1043F07A
:1031A80001039360CDE7FF23A0F85C30C1E7036912
:1031B800002BBBD03F23A0F85C30BAE7D131000820
:1031C8002D320008704700BF816F0268222938B588
:1031D80004D0936943F00803936138BD526A90F8AC
:1031E8005C40416D22400A70B0F85A20416D013AA6
:1031F800013192B24165A0F85A20B0F85A2092B233
:10320800002AEAD1016820250C6824F490740C6027
:103218008C6824F001048C600266856703F0BEFAAE
:1032280038BD00BF816F0268222938B504D0936980
:1032380043F00803936138BD516AB0F85C50446D9F
:10324800294024F8021BB0F85A104465013989B2A4
:10325800A0F85A10B0F85A1089B20029EBD11468B6
:10326800202524F490741460946824F00104946078
:103278000166856703F092FA38BD00BF704700BF4A
:103288000368DA6970B516071D680446996847D05F
:1032980011F001014BD0D00707D5EE0505D5012067
:1032A8001862E06F40F00100E06790075DD45007B6
:1032B80001D5002963D1160703D5A80666D40029CD
:1032C80064D1E16F002931D0960601D5A80668D4EB
:1032D800E56F9968490602D415F0080568D01A68A0
:1032E8002020002122F490721A609A6822F00102CC
:1032F8009A60A0679A68216652064ED59A68E16E70
:1033080022F040029A60002947D02C4B08460B65F2
:10331800FDF704FC50B1E06EBDE87040036D18473E
:10332800910607D5AE0605D5036EDBB970BD15F459
:10333800907FB0D116060FD45106F7D56A06F5D599
:103348001A6820250021204622F040021A6065678D
:103358006166FFF737FF70BD2806EDD5636E002B59
:10336800E4D02046BDE8704018470029A3D00220C9
:1033780056071862E06F40F00400E0679BD5042010
:103388001862E06F40F00200E06794E708211962D4
:10339800E16F41F00801E16793E72046FFF76EFF10
:1033A80070BD226E002A93D02046904723688FE78D
:1033B8002046FFF763FFE56770BD00BFC93300080B
:1033C80008B50022836BA3F85A201846A3F85220A8
:1033D800FFF754FF08BD00BFF8B504468368AF493E
:1033E800E669E768AE4DD0E904201A432368024332
:1033F8001868AB4201EA000142EA060242EA010209
:10340800A1691A605868226A20F4405042EA010211
:1034180040EA07005860996821F4306142EA0102E5
:103428009A6041D09F4A93421BD09F4A934200F032
:10343800B1809E4A934200F0DF809D4A934253D068
:103448009C4A934200F0BE809B4A934200F005815B
:103458009A4A934200F0118100230120C4E91833ED
:10346800F8BD02F5FA32964BD2F8902002F00C0221
:1034780013441B79B6F5004F1ED0082BECD801A2D7
:1034880052F823F08B3500081D3500083B3600083C
:1034980061340008E335000861340008613400082D
:1034A80061340008BD350008864B854AD3F8903052
:1034B80003F00303D35CDDE7082BCDD801A252F853
:1034C80023F000BFF5350008473500081B36000813
:1034D80061340008FB3500086134000861340008D5
:1034E800613400082B360008764BD3F8903003F48B
:1034F8004073B3F5807F6DD03DD9B3F5007F00F000
:103508008580B3F5407F52D0A6E7002BA4D1B6F54D
:10351800004F14D0FEF722FF626800EB5203B3FBA2
:10352800F2F39BB2A3F110014FF6EF72914293D8D8
:1035380022680020D3600023C4E91833F8BDFEF7E1
:103548000DFF6268530803EB4003B3FBF2F39BB231
:10355800A3F110014FF6EF7291423FF67DAF23F0D1
:103568000F02C3F34203216800201343CB600023FA
:10357800C4E91833F8BD002B7FF46EAFB6F5004FE1
:1035880034D0FEF7DBFE626800EB5203B3FBF2F3C4
:103598009BB2C7E74B4BD3F8903003F03003102BA6
:1035A80018D0E8D9202B31D0302B7FF455AFB6F5A1
:1035B800004F36D06268530803F50043B3FBF2F3BB
:1035C8009BB2AFE73F4BD3F8903003F44063B3F5B9
:1035D800806F36D1B6F5004F0BD0FEF7D7FD626885
:1035E80000EB5203B3FBF2F39BB29BE7FEF7A6FE98
:1035F800A7E7FEF7CBFDA4E7324BD3F8903003F0F2
:10360800C003402BE6D0B6D9802B23D1B6F5004FA6
:103618000FD162682C4B03EB5203B3FBF2F39BB25E
:1036280096E76268530803F58033B3FBF2F39BB265
:103638008EE76268254B03EB5203B3FBF2F39BB2B0
:1036480070E77FF662AFB3F5006FDFD0B3F5406F78
:10365800ADD001E7C02BAAD0FEE61A4BD3F89030C4
:1036680003F44053B3F5805FB4D084D9B3F5005F59
:10367800CCD0B3F5405F9AD0EEE6124BD3F8903039
:1036880003F44043B3F5804FA4D07FF674AFB3F58D
:10369800004FBBD0B3F5404F89D0DDE6F369FFEFAB
:1036A800001001400044004000480040004C004029
:1036B800005000400014014000780040007C0040A9
:1036C800D47B0008003802400048E8010024F400D8
:1036D800436ADA0710B406D50168846A4A6822F496
:1036E800003222434A609C0706D50168C46A4A68CA
:1036F80022F4803222434A60590706D50168046BD8
:103708004A6822F4802222434A601A0706D50168D3
:10371800446B4A6822F4004222434A60DC0606D51C
:103728000168846B8A6822F4805222438A60990671
:1037380006D50168C46B8A6822F4005222438A6065
:103748005A060AD50168046C4A68B4F5801F22F449
:10375800801242EA04024A600BD01B0606D50268B2
:10376800816C536823F400230B4353605DF8044BCA
:1037780070474A68446C22F4C00222434A60ECE76E
:103788002DE9F843089D80460F4616469946D8F815
:10379800004001E06B1C0AD1E06937EA00030CBF66
:1037A80001200020B042F5D00020BDE8F883FCF7E6
:1037B800E5FEA0EB0900A84201D8002DE7D1D8F812
:1037C80000302021002403201A6822F4D0721A60E5
:1037D8009A6822F001029A60C8F8741088F870405C
:1037E800C8F87810E1E700BF70B50025044682B03C
:1037F800C567FCF7C3FE22681268130708D40023C4
:1038080020221846626784F87030A26702B070BD43
:103818006FF07E4603462A464FF400110096204674
:10382800FFF7AEFF0028EAD0032002B070BD00BF4A
:1038380070B3436F10B50446FBB1226824232046B9
:103848006367136823F001031360FFF7C5FD0128C0
:1038580018D0636AC3B9236820465A6822F4904294
:103868005A609A6822F02A029A601A6842F00102A5
:10387800BDE810401A60FFF7B7BF80F8703003F05A
:10388800A5FDDAE7012010BD2046FFF721FFE2E79A
:10389800012070470B4B01E0013B10D00269002A60
:1038A800FADA0369074A43F00103036101E0013AC8
:1038B80005D0036913F00103F9D1184670470320B6
:1038C800704700BF400D030084B038B50A9D05ACB1
:1038D800012D84E80E00014621D1826B184B22F499
:1038E800803211988A630128CA6803EA0203CB6010
:1038F800CB6823F44013CB601CD00846FFF7CAFFFF
:10390800089B012B07D18B6843F006038B608B68FB
:1039180043F020038B60BDE8384004B07047C368AB
:1039280043F04003C360FFF7B5FF8B6B43F480336C
:103938008B63E5E7CB6843F48013CB60DDE700BF1A
:10394800BFFFBDFF032A034610B40CD04FF4105438
:10395800D968002021F47051D960DA6822435DF8F3
:10396800044BDA607047294A29480A4482423AD906
:10397800284A29480A44824232D9284A28480A440F
:10398800824233D9274A00F5C3300A44A030824224
:103998002FD9254A25480A4482422DD9244A00F5C0
:1039A80092200A4400F57870824228D9214A00F50D
:1039B800C3200A4400F520708242C7D91E4A00F588
:1039C800B7100A4400F5587082421BD91B4A1C4C98
:1039D8000A44A2428CBF4FF4C0544FF4E054B7E7F6
:1039E8004FF46054B4E74FF47054B1E74FF45054B7
:1039F800AEE74FF44054ABE74FF43054A8E74FF428
:103A08002054A5E74FF40054A2E700BF405327FF16
:103A1800FF340C00401E1BFF3F420F0000DC0BFF71
:103A28007F4F1200808CF9FE60B6E5FE5FE316005A
:103A380000D3CEFEC05BB3FE00CA91FEE05459FE2F
:103A4800DF9C410002460020936843F00103936025
:103A5800704700BF02460020936823F0010393607B
:103A6800704700BF08B5C368012923F0C043C3608D
:103A78000BD041B9C36843F08043C3603220FCF7E0
:103A880083FD002008BD012008BDC36843F0005332
:103A9800C360F3E784B02DE9F047002409AF054679
:103AA8000C9EDDF838C0204687E80E001399099F60
:103AB8000B9A04F14003013405EB83030F2C586083
:103AC800F7D1AB6B002940F0A18023F40013AB635E
:103AD8002B6843F040032B602B6843F080032B6076
:103AE8000023BCF1010F05F50064C5F8003ED5F8C8
:103AF8000038C5F80038D5F800383ED0BCF1030FBF
:103B08003BD043F00303C5F800384FF484624C4BB4
:103B18002A6102E0013B00F08B80286910F0200048
:103B2800F8D11022464B2A6101E0013B7ED02A6978
:103B3800D206FAD4002222616261E26127B305F558
:103B480010634FF090494FF0006A96464FF67F3861
:103B580009E0C3F800E00132C3F810E0C3F80880B8
:103B68002033BA4234D0D3F800C0BCF1000FF0DAE9
:103B7800002A5FD0C3F80090EDE7002AC3D043F0D5
:103B88000103C5F80038C0E72369012E23F48073C8
:103B980023613FD000226FF08043AA616B611EB998
:103BA800AB6943F01003AB61AC69264B0F9A234312
:103BB800AB611AB1AB6943F00803AB61012903D1CA
:103BC800AA69214B1343AB61BDE8F04704B07047C5
:103BD800002705F530634FF090494FF0006ABE4664
:103BE8004FF67F3809E0C3F800E00137C3F810E06A
:103BF800C3F8088020339742C6D0D3F800C0BCF180
:103C0800000FF0DACFB1C3F80090EEE743F40013E9
:103C1800AB6365E70D4A00260D4B22636FF08042C7
:103C2800276B3B432363AE616A61BDE7012081E7EF
:103C3800012076E7C3F800A08DE7C3F800A0D4E719
:103C4800400D030000383C80040000400001800063
:103C5800030001008901074A41F02001016101E0E8
:103C6800013A05D0036913F02003F9D118467047CB
:103C780003207047400D0300D0F8083813F0060001
:103C880004D013F0020F0CBF00200320704700BFC0
:103C980070B40A7801234D7800F5006402F00F062D
:103CA80000EB4210012D03FA06F317D0E26942EA4D
:103CB8000343E361D0F8003B1B040CD48A68144B1F
:103CC800C2F30A02CC78D0F8001B134343EA8443BA
:103CD8000B43C0F8003B002070BC7047E5692B43DC
:103CE800E361D0F800391C04F5D48C68084BC4F3A0
:103CF8000A04CD78D0F80019234343EA854343EA00
:103D080082520A4370BCC0F800290020704700BFE7
:103D18000080001030B40C780123497800F5006267
:103D280004F00F0500EB4410012903FA05F310D045
:103D3800D46B6FEA03430F491C40D463D469234012
:103D4800D361D0F8003B194030BCC0F8001B0020FC
:103D58007047D46BDB4308491C40D463D4692340C3
:103D6800D361D0F80039194030BCC0F800190020E0
:103D7800704700BF0078F3EF007833EC2DE9F04787
:103D88004F780B78012F4C6900EB4313CE7855D050
:103D980003F53067DFF8D8E1D7F810C0724D0CEAA8
:103DA8000E0ED1F808C0C7F810E0D7F810E00EEAF8
:103DB80005053D618CB30CEB04056C4CD7F81080FD
:103DC800012A05F1FF35B5FBFCF504EAC54EADB295
:103DD8004EEA080E0CFB05F4C7F810E03D69C4F381
:103DE800120444EA05043C6123D0012E0CD1D0F81A
:103DF800082812F4807FD3F8002B0CBF42F0005241
:103E080042F08052C3F8002BD3F8002B42F0044252
:103E1800C3F8002B0020BDE8F0873D69CCF31204FD
:103E2800012A44EA05043C613C6944F400243C61ED
:103E3800DBD1CA68002AD8D07A61D6E703F51065C5
:103E4800002C3ED1D5F810E0012ADFF81CC1484FFC
:103E58000EEA0C0CC5F810C0D5F810C04CF4002CB4
:103E6800C5F810C0D5F810C00CEA07072F6172D04A
:103E7800012E5DD1D0F8085815F4807FD3F8005989
:103E88000CBF45F0005545F08055C3F80059D3F8EC
:103E9800005945F00445C3F80059002ABAD1A2B226
:103EA80003329208B6D00C78CB6800EB043003EBF1
:103EB800820200F5805053F8041B93420160FAD146
:103EC800A8E7D1F80880C4F3120CD5F81090012E99
:103ED80008EB040EDFF898A00EF1FF3E09EA0A0A83
:103EE800DFF88490C5F810A0D5F810A0BEFBF8F84C
:103EF8000AEA0909DFF874E0C5F810900EEAC84E1E
:103F0800D5F810804EEA080EC5F810E0D5F810E094
:103F18004CEA0E0CC5F810C013D0012A20D00A783C
:103F2800D0F8341802F00F0297400F43C0F83478E5
:103F3800D3F80029002042F00442C3F80029BDE864
:103F4800F0872F69012A27F0C0472F612F6947F0B2
:103F580000572F618ED10F69002F89D06F6187E7D5
:103F68000F69002FFAD1E3E7FFFF07E00000F81F11
:103F78000000F8FF4B78F0B5012B0D784F6900EB86
:103F8800451425D004F530633E4E18693E4D064071
:103F980088681E611E6935401D6107B148611D6949
:103FA800C0F31200012A45F400251D611D6940EA8D
:103FB8000500186107D0D4F8003B002043F0044303
:103FC800C4F8003BF0BDCA68002AF4D05A61F2E791
:103FD80004F510639FB3D3F810E0DFF8A8C02A4EA9
:103FE8000EEA0C0CD1F808E0C3F810C0BE45D3F8AF
:103FF80010C00CEA06061E6136D21F69CEF31206FF
:10400800C1F814E0012A47F400271F611F6946EA36
:1040180007061E6123D0BEF1000F08D005F00F027D
:104028000125D0F8343895401D43C0F83458D4F8E9
:104038000039002043F00443C4F80039F0BD1E697C
:10404800012A114D0F4805EA06051D611D6945F451
:1040580000251D611D6900EA05001861E7D10A699C
:10406800002AE4D05A61E2E71E69C7F31207012A61
:1040780046F400261E611E6947EA06071F61CDD176
:10408800EDE700BF0000F8FFFFFF07E010B49DF860
:1040980004406CB903339B080AD000EB023001EBF3
:1040A800830300F5805051F8042B8B420260FAD14B
:1040B80000205DF8044B7047033292080CD010B40E
:1040C80000F5805401EB8200236841F8043B8142EB
:1040D800FAD15DF8044B7047084670470B784A7868
:1040E80000EB4310003318BF0123012A12D0D0F887
:1040F800002B002A06DB2BB1D0F8003B23F08043CD
:10410800C0F8003BD0F8003B43F40013C0F8003B74
:1041180000207047D0F80029002A06DB2BB1D0F820
:10412800003923F08043C0F80039D0F8003943F44F
:104138000013C0F800390020704700BFCB780A7818
:104148004978023B00EB42100129DBB211D0D0F8CC
:10415800002B012B22F40012C0F8002B01D90020FB
:104168007047D0F8003B43F08053C0F8003B002074
:104178007047D0F80029012B22F40012C0F800295A
:10418800EDD8D0F8003943F08053C0F8003900204A
:10419800704700BF034609010020D3F8002801F446
:1041A800FE6122F4FE62C3F80028D3F80028114308
:1041B800C3F80018704700BF00F50062032008B577
:1041C800536823F002035360FCF7DEF9002008BDB2
:1041D80000F50062032008B5536843F002035360FA
:1041E800FCF7D2F9002008BD426980691040704789
:1041F800D0F8183800F50060C0691840000C704706
:10420800D0F8183800F50060C069184080B27047CF
:1042180000EB411100F50060D1F8082B406910400F
:10422800704700BF00F5006200EB411010B401F0C8
:104238000F041169536B00F51060E34080685DF866
:10424800044BDB01DBB20B4318407047406900F0B8
:1042580001007047D0F8001900F500630A4A0A40C7
:10426800C0F800299A6802F00602042A05D1D0F89D
:10427800002942F00302C0F800295A68002042F4DD
:1042880080725A60704700BF00F8FFFF30B4124CCC
:1042980000F53063056CA54203D9D0F8004B002C1B
:1042A80016DB002401291C611C6944F400241C61EC
:1042B8001C6944F018041C611C6944F0C0441C616A
:1042C80006D15A61D0F8003B43F08023C0F8003B88
:1042D800002030BC704700BF0A30544FD0F89032ED
:1042E8001BB10020C3F8140270470220704700BFBA
:1042F800D0F8943283B110B5D0F8904294F8000207
:10430800FF2807D09B68214694F801229847FF238D
:1043180084F80032002010BD002070476523038018
:104328000048704708000020652303800048704754
:10433800700000206523038000487047D8000020E3
:104348000A230380004870474001002038B504461E
:10435800D0F8905203F0FEF9D4F89032C5F80C0268
:104368004BB1D4F8943205F50371D5F80402DB6833
:104378009847002038BD022038BD00BF2DE9F04124
:104388000B780C4613F060020ED0202A09D1CE8893
:1043980005464F7896B9D0F89432324638469B682D
:1043A80098470020BDE8F0814B780A2BF9D101220B
:1043B8000F4900F0C1FC0020BDE8F0811B06D0F8D1
:1043C80090820CD5D0F894323246414638469B68E4
:1043D8009847E2884146284600F0AEFCE1E788F8B5
:1043E8000072324688F80162414600F0BBFCD8E70B
:1043F8007802002010B50446812103F043F9012119
:10440800204603F03FF92046822103F03BF9D4F817
:10441800903253B1D4F894325B689847D4F890023C
:1044280003F0FEFA0023C4F89032002010BD00BF4C
:10443800F8B5037C044673BB4FF400730222812154
:1044480003F00EF94FF4007302220121204603F015
:1044580007F9082303228221204603F001F94FF4CB
:10446800077003F0D5FA0546C4F8900230B3D4F8C3
:10447800943200261B689847277CC5F814622046AA
:10448800C5F81862D5F804228FB14023012103F042
:1044980053F93046F8BD40230222812103F0E0F8A9
:1044A800402302220121204603F0DAF8D1E74FF435
:1044B8000073012103F040F93846F8BD0120F8BD2A
:1044C80019B1C0F89412002070470220704700BF4D
:1044D800D0F890320020C3F80812C3F810227047B1
:1044E800D0F890320020C3F804127047D0F8901228
:1044F80089B138B5D1F814420CB1012038BD012575
:10450800B1F81032D1F80822C1F81452812103F011
:1045180005F9204638BD0220704700BFD0F8902228
:104528008AB1D2F8042210B5047C2CB140230121B1
:1045380003F002F9002010BD4FF40073012103F0CD
:10454800FBF8204610BD0220704700BF88B108B5AF
:10455800D0F88C3213B10023C0F88C3209B1C0F8FE
:1045680088120121027080F8741203F039F80020D3
:1045780008BD0220704700BF19B1C0F88C12002096
:1045880070470220704700BF08B503F05BF80020B1
:1045980008BD00BF08B5D0F88C321BB11B6898471E
:1045A80000B908BD022008BD08B5D0F88C325B6898
:1045B8009847002008BD00BF38B500F520750446AF
:1045C800284600F07FFB94F880120120B4F8862278
:1045D80001F01F03C4F86C028342C4F8702215D09E
:1045E8000ED3022B06D001F08001204603F058F8C4
:1045F800002038BD2946204600F0CCFA002038BDFE
:104608002946204600F000F9002038BD29462046FA
:1046180000F094FA002038BD70B5054641B9D0F8CD
:104628006C32032B0FD0052B0C462ED0002070BD0A
:10463800D0F88C329B69C3B190F87422032A14D144
:104648009847002070BD1646D0F84C31D0F850215C
:1046580093420CD99B1A31469A42C0F84C318CBF10
:104668009AB292B200F08EFBE0E7022070BDD0F85B
:104678008C321B6923B190F87422032A00D1984721
:10468800284600F087FB002070BDC5F86C1203F0C7
:1046980007F8204670BD00BF70B5044661B9D0F870
:1046A8006C52022D16D035F0040334D094F87832C9
:1046B8000020012B0BD070BDD0F88C325B6943B35E
:1046C80090F87422032A24D19847002070BD84F8FA
:1046D800780270BDD0E908530E469D421FD8C569BF
:1046E800B5FBF3F203FB12520AB9AB4224D9D4F852
:1046F8008C32DB682BB194F87422032A01D120464E
:1047080098478021204602F0CBFF204600F04EFB60
:10471800CCE7022070BD802102F0C2FFC6E7EB1A89
:10472800114603629AB200F015FB33463246314611
:10473800204603F001F8B9E7D0F870329D42D6D28E
:104748000A4600F007FBC4F87062EEE770B5002275
:104758004026044601251146334602F081FF3346C0
:104768008021C4F84451C4F850612046002202F068
:1047780077FF0021D4F89032A561666284F87452FC
:10478800C4F86C126160C4F87C1223B1D4F88C327E
:1047980020465B689847002070BD00BF0174002068
:1047A800704700BF03460421002093F8742283F861
:1047B800741283F8752270470346002093F8752217
:1047C80083F87422704700BF90F87422032A01D03E
:1047D8000020704708B5D0F88C32DB6903B19847E0
:1047E800002008BD00207047002070470020704757
:1047F800D0F88C22012108B580F874120179536829
:104808009847002008BD00BF30B50B7883B00D462F
:10481800044603F06003202B28D0402B26D053B148
:104828008021204602F03CFF2046002102F038FF9C
:10483800002003B030BD4B78092BF1D801A252F803
:1048480023F000BFC9480008F548000829480008B7
:1048580011490008294800081D4900085B4900085B
:1048680029480008A949000887480008D4F88C326C
:10487800294620469B689847002003B030BD8978B8
:10488800AD4D01292970CBD890F87432022B00F075
:104898002881032B40F01981002900F03E814168EE
:1048A800012909D0C9B2FFF77FFE29782046616047
:1048B800FFF770FE0228B3D0204600F06BFAB7E786
:1048C80090F874320322013B022BA9D8CB88022B23
:1048D800A6D10121D0F87C32C16003B1C2600222A6
:1048E80004F10C01204600F027FAA1E790F8743291
:1048F800013B022B94D84B88012B99D10023C0F897
:104908007C3200F047FA93E74B88012B90D1C0F82E
:104918007C32D1E78B88002B82D1CB88002B7FF4A7
:104928007FAF4D887F2D3FF67BAF90F87432032B15
:104938003FF476AFE9B280F8761202F0E1FE204645
:1049480000F028FA002D00F0F280022384F8743277
:104958006EE74A88130A013B0E2B3FF661AF01A1AF
:1049680051F823F0514A0008394A0008614A000802
:104978002948000829480008094A00081F4A000871
:10498800294800082948000829480008294800083B
:10499800294800082948000829480008CF49000884
:1049A800CA88012A7FF43CAF90F87432002B3FF498
:1049B80037AF022B40F2A380032B7FF431AF011DE8
:1049C80000F0BAF934E7D0F888320DF10601007C1E
:1049D800DB699847BDF80630EA886BB1002A3FF4D6
:1049E8006BAF93420146204628BF13461A46ADF8DE
:1049F800063000F0A1F9EA88002A7FF419AF5BE7D6
:104A0800037C002B7FF40CAFD0F88C320DF106003C
:104A18005B6B9847DEE7037C002B7FF401AFD0F88F
:104A28008C320DF106001B6B984707234370D1E7C2
:104A3800027CD0F88C32002A68D19B6A0DF10600FE
:104A4800984702234370C5E7D0F888320DF1060174
:104A5800007C1B689847BDE7D2B2052A3FF6E0AE56
:104A6800DFE802F02B231B130B03D0F888320DF17B
:104A78000601007C9B699847ACE7D0F888320DF1B5
:104A88000601007C5B699847A4E7D0F888320DF1ED
:104A98000601007C1B6998479CE7D0F888320DF125
:104AA8000601007CDB68984794E7D0F888320DF15E
:104AB8000601007C9B6898478CE7D0F888320DF196
:104AC8000601007C5B68984784E7802102F0E8FDD6
:104AD8000021204602F0E4FD29782046FFF764FD16
:104AE800A6E600293FF4E8AE01210323416080F8DF
:104AF8007432FFF74FFD02287FF4DEAE90E6002304
:104B0800014641F8083F00F017F991E6DB6A0DF11C
:104B180006009847022343705CE70223416080F84F
:104B28007432FFF741FD204600F034F980E6012396
:104B380084F874327CE600BF7902002038B50B781F
:104B48000D46044603F06003202B0CD0402B0AD0FE
:104B58004BB18021204602F0A3FD2046002102F03F
:104B68009FFD002038BD94F87432013B022BF0D829
:104B78002B79012BEDD8D4F88C32294620469B6836
:104B88009847EB88002BECD10028EAD1204600F0AA
:104B980001F9E6E770B50B78044603F06003202BB3
:104BA8000CD0402B0AD083B18021204602F078FD3A
:104BB8002046002102F074FD002070BDD4F88C322C
:104BC80020469B689847002070BD4B788A88012B47
:104BD800D5B237D014D3032BE6D190F87432022B18
:104BE8003FD0032BE0D14B8833B96A0604D0CB8879
:104BF80013B9294602F054FD204600F0CBF8DBE754
:104C080090F87432022B36D0032BCDD105F00F0368
:104C1800120603EB830300EB83033ED4D3F844313D
:104C2800002BC1D005F07F03142606FB030606F50A
:104C3800A076002B3CD1336031462046022200F09A
:104C48007BF8B9E790F87432022B0AD0032BABD16A
:104C58004B88002BB0D16E06CED0294602F02EFD2F
:104C6800CAE76B06A0D0294602F01AFD204680212B
:104C780002F016FDA0E7680696D111064FF0000570
:104C880020464FF002024CBF04F1140304F5A07350
:104C980019461D6000F050F88EE79B69002B83D001
:104CA80005F07F035E1C06EB860600EB8606C0E770
:104CB8002946204602F010FD08B10123BBE7306009
:104CC800BAE700BF0B7803704B784370CA788B78CB
:104CD80003EB022343804A790B7903EB0223838099
:104CE800CA798B7903EB0223C380704700B303783A
:104CF80030B4F3B104460023013314F8015FDBB28A
:104D0800002DF9D15B000233032413800B704C7023
:104D180004785CB1022300255A1CCC540233D2B269
:104D2800DBB28D5410F8014F002CF5D130BC704720
:104D380070470223E8E700BF70B5154602260A4609
:104D48000021C5612B460562C0F86C6202F0E6FCE2
:104D5800002070BD08B513460A46002102F0DEFCAB
:104D6800002008BD70B5154603260A460021C0F884
:104D780048512B46C0F84C51C0F86C6202F0DCFC7C
:104D8800002070BD08B513460A46002102F0D4FC85
:104D9800002008BD08B504220023C0F86C2219467B
:104DA8001A4602F0BBFC002008BD00BF08B505226A
:104DB8000023C0F86C2219461A4602F0BDFC0020F8
:104DC80008BD00BF264B4FF440322649264830B56F
:104DD8004FF0407585B0032419605A600121002204
:104DE800986218469D60DC61196183F82010596249
:104DF8000092DA62DA6083F830200392C3E9051280
:104E0800CDE90122FBF7D2FB30BB042401220723A2
:104E1800694613480293CDE90042FBF75BFDC0B930
:104E28000622022369460E48CDE90023FBF752FD0E
:104E380060B90722032369460948CDE90023FBF737
:104E480049FD08B101F0F4FC05B030BD01F0F0FCFB
:104E5800EFE701F0EDFCE3E701F0EAFCD5E700BF7E
:104E68009C020020002001400100000F016800237F
:104E7800144A30B5914289B0CDE90333CDE9053301
:104E8800079301D009B030BD0F4BD025032403A9E7
:104E98005A6C0E4842F480725A645A6C02F480725A
:104EA8000192019A1A6B42F001021A631B6B039577
:104EB80003F0010304940293029BFBF743FE09B03D
:104EC80030BD00BF00200140003802400000024011
:104ED8000021FF22024B016082808360704700BF7F
:104EE800E402002030B4048803464088621C8242F1
:104EF80013D09D8808B995420FD092B20868996876
:104F080095421A8041F8240002D0012030BC704735
:104F1800002201201A8030BC7047002030BC704746
:104F2800438802889A42F0B482B01CD084685A1C24
:104F3800878804EB830114F8236093B24D789F426D
:104F480043808C78CA780BD0002066F3070065F39D
:104F58000F2064F3174062F31F6002B0F0BC704783
:104F680000234380F0E70022144615461646EBE777
:104F7800704700BF2DE9F04F5E4B8DB0002401262D
:104F8800DFF878A149F2BE510894224607945046AA
:104F98000B94DFF86C91584FDFF86881DFF868B13F
:104FA800CDE909441D6B45F010051D630325D3F8B1
:104FB80030C00CF0100CCDF804C0DDF804C0D3F8F4
:104FC80030C04CF0040CC3F830C0D3F830C00CF03B
:104FD800040CCDF808C0DDF808C0D3F830C04CF098
:104FE800800CC3F830C0D3F830C00CF0800CCDF87A
:104FF8000CC0DDF80CC0D3F830C04CEA060CC3F87E
:1050080030C0D3F830C00CEA060CCDF810C0DDF87B
:1050180010C0D3F830C04CF0020CC3F830C0D3F83D
:1050280030C00CF0020CCDF814C0DDF814C0D3F871
:1050380030C04CF0080CC3F830C01B6B03F00803F9
:105048000693069BFBF7A2FE224648464FF63F41D1
:10505800FBF79CFE224638464FF40641FBF796FEC6
:105068002246404643F20401FBF790FE224658468A
:1050780040F6FF71FBF78AFE49F29E53504607A996
:1050880009940A95CDE90736FBF75CFD4FF63F43D7
:10509800484607A907930A95CDE90864FBF752FD2E
:1050A800D02307A938460793CDE90844FBF74AFD02
:1050B80048F22163384607A907930A95CDE90864A1
:1050C800FBF740FD43F20403404607A907930A95FE
:1050D800CDE90864FBF736FD40F6FF7307A958468B
:1050E8000A950793CDE90864FBF72CFD0DB0BDE8E0
:1050F800F08F00BF0038024000000240001002405C
:105108000008024000040240000C024038B5134B6E
:1051180000220121124D134C18461A62C3E90054AB
:10512800C3E90221C3E90422C3E90622FBF7FCFE16
:1051380088B900210948FCF705F848B90021074853
:10514800FCF72AF800B938BDBDE8384001F070BB5B
:1051580001F06EFBF2E701F06BFBEAE7780700204D
:10516800005400406847402038B5134B0022012105
:10517800124D134C18461A62C3E90054C3E90221C0
:10518800C3E90422C3E90622FBF7CEFE88B9002151
:105198000948FBF7D7FF48B900210748FBF7FCFF90
:1051A80000B938BDBDE8384001F042BB01F040FB12
:1051B800F2E701F03DFBEAE7C40700200058004091
:1051C8006847402038B5134B00220121124D134C7B
:1051D80018461A62C3E90054C3E90221C3E904224C
:1051E800C3E90622FBF7A0FE88B900210948FBF7AE
:1051F800A9FF48B900210748FBF7CEFF00B938BD21
:10520800BDE8384001F014BB01F012FBF2E701F0F1
:105218000FFBEAE7E0060020005C004068474020FA
:1052280038B5134B00220121124D134C18461A624F
:10523800C3E90054C3E90221C3E90422C3E90622F1
:10524800FBF772FE88B900210948FBF77BFF48B9D4
:1052580000210748FBF7A0FF00B938BDBDE838407A
:1052680001F0E6BA01F0E4FAF2E701F0E1FAEAE760
:105278002C07002000600040684740200268002397
:105288005D492DE9F0418A428EB0CDE90933CDE977
:105298000B330D9330D0594B9A4251D0584B9A4208
:1052A80073D0584B9A4202D00EB0BDE8F081564CEC
:1052B800122201204FF44056236B032509A943F01D
:1052C80008032363236B0A92042203F008030B905C
:1052D8004E480793079B0996CDE90C52FBF732FC21
:1052E800236C43F080732364236C03F0807308936A
:1052F800089B0EB0BDE8F081434C12220120C02665
:10530800236B032509A943F002032363236B0A9245
:10531800042203F002030B903D480093009B09967A
:10532800CDE90C52FBF70EFC236C43F40013236405
:10533800236C03F400130193019B0EB0BDE8F081C8
:10534800314C122201204FF44066236B032509A932
:1053580043F002032363236B0A92042203F002033F
:105368000B902B480293029B0996CDE90C52FBF750
:10537800E9FB236C43F480032364236C03F4800368
:105388000393039B0EB0BDE8F0811F4C0425012751
:105398004FF40072236B4FF01208032609A92B4320
:1053A8001C482363236B2B400493049B236B3B43D0
:1053B8002363236B09923B400593059BCDE90A873C
:1053C800CDE90C65FBF7BEFB4FF4807309A91248C1
:1053D8000993CDE90A87CDE90C65FBF7B3FB236C8C
:1053E80043F400032364236C03F400030693069B31
:1053F8000EB0BDE8F08100BF0054004000580040E6
:10540800005C00400060004000380240000C024090
:105418000004024000080240000002400138C0EBCE
:10542800C00070B50E4D84002B19285941B190B1B8
:1054380099882C44FDF76AFB40F20113638370BD21
:1054480010B92C44608370BD0E462C449988FDF732
:105458005FFB668370BD2C4440F20113638370BD0B
:1054680030080020EE4B002240204221DFF8E4C340
:105478002DE9F04FEB4F0124EB4D4FF0040A5F612B
:10548800EA4FDFF8D4B3EA4EDFF8D0931F634FF446
:105498004007C3F84C901A609A809A76DA76DA61F7
:1054A8001A8483F8362083F837209A639A87A3F8FA
:1054B8005220A3F858205A669D605D621D64DD6520
:1054C800187383F8280083F8440083F860005C763A
:1054D80083F8354083F851405E65C3F810B0C3F8CF
:1054E8002CB0C3F848B09F664FF04077DFF8708360
:1054F800C3F8847007F17457DFF868E307F50237DB
:1055080083F86D40A3F86E201E679D6783F87C00C2
:10551800C3F8802083F8894083F88A2083F88B2099
:10552800C3F88C20A3F89020C3F8945083F898000F
:1055380083F8A54083F8A62083F8A720C3F8A820FD
:10554800A3F8AC20C3F8B05083F8B40083F8C14086
:1055580083F8C22083F8C320C3F8C420A3F8C82066
:10556800C3F8CC5083F8D000C3F8A080C3F8BCE0DF
:10557800C3F89C70A3F874A0C3F8B870C3F8D470CB
:10558800C3F8F070C3F80C71C3F82871A94FAA4E7C
:10559800C3F8D870A94F83F8DD40C3F81071A84F3D
:1055A80083F8DE2083F8DF20C3F8E020A3F8E420A6
:1055B800C3F8E85083F8F94083F8FA2083F8FB2011
:1055C800C3F8FC20A3F80021C3F8045183F815415F
:1055D80083F8162183F81721C3F81821A3F81C2192
:1055E800C3F8205183F8314183F8322183F83321FD
:1055F800C3F83421C3F8F4C0C3F82C6183F8EC1065
:1056080083F8081183F82411C3F844714FF04077E8
:10561800DFF854E2C3F864714FF04067DFF84CC21A
:10562800C3F880714FF04057C3F848E14FF0080EB7
:10563800C3F89C714FF00C07A3F83821C3F83C510C
:1056480083F84D41A3F84E21A3F85421C3F85851CB
:10565800C3F8602183F86941A3F86A21C3F874513B
:10566800C3F87C2183F88541A3F88621C3F89051BB
:10567800C3F8982183F8A141A3F8A221C3F850C127
:10568800C3F86CC1C3F888C1C3F8A4C1A3F88CE1FE
:1056980083F8401183F85C11A3F870A183F878119E
:1056A80083F89411A3F8A871654FDFF8C481DFF877
:1056B800C491C3F8D071C3F8EC714FF04047614E04
:1056C800C3F8D481C3F8F0914FF44019DFF8A881EA
:1056D800C3F8B8715C4FDFF8A4C1C3F8AC51C3F884
:1056E800B42183F8BD4183F8BE2183F8BF21C3F8F4
:1056F800C021A3F8C42183F8CC0183F8D94183F8E9
:10570800DA2183F8DB21C3F8DC21A3F8E02183F850
:10571800E80183F8F541A3F8F621A3F8FCE183F842
:105728000402DFF85CE1C3F8082283F81142A3F809
:105738001222464DC3F8C861C3F8E461C3F8006299
:10574800C3F8F871C3F814724FF4400783F8B01126
:10575800C3F80C924FF00C09C3F87C824FF0404814
:10576800A3F81892C3F81C6283F82002C3F8242215
:10577800C3F828724FF4400783F82D4283F82E228D
:1057880083F82F22C3F83022A3F83422C3F83862F2
:1057980083F83C0283F8494283F84A2283F84B2273
:1057A800C3F84C22A3F85022C3F8546283F8580275
:1057B80083F8654283F8662283F86722C3F8682273
:1057C800A3F86C22C3F8706283F8740283F88142EC
:1057D800C3F844C2C3F86052C3F85CB2C3F878B2E5
:1057E800C3F840E2C3F898824FF44138184DC3F823
:1057F800B4824FF44028A3F88222A3F88822C3F881
:105808008C6283F89002C3F8942283F89D4283F84F
:105818009E2283F89F22C3F8A022A3F8A42231E095
:1058280030080020040003007807002008000C005E
:1058380078110020008000C00400300002000C0035
:1058480000080240C4070020381000208000000C27
:105858003811002001000300001002401000300041
:105868000020000C004000300800C000F80F0020A5
:105878001000030020000C000001003004000003A9
:1058880000040240C3F8A86283F8B94283F8BA2238
:1058980083F8BB22C3F8C462C3F8CC2283F8D5428C
:1058A80083F8D62283F8D722C3F8D822A3F8DC22BB
:1058B800C3F8E062C3F88452C3F8BC5283F8AC1250
:1058C800C3F8B0B2A3F8C0A283F8C81283F8E412F0
:1058D800C3F8E8B2C3F8D082C3F8F452C3F810533F
:1058E8004FF00C05DFF81CC4A3F814534FF04075B3
:1058F800C3F8ECC24FF0080CC3F82453F64DDFF898
:105908000894DFF8088483F8F142A3F8F222A3F898
:10591800F8C2C3F8FC62DFF8F8C3C3F80423C3F87D
:1059280008732F4683F80D43A3F80E23C3F81863B2
:10593800C3F8202383F8294383F82A2383F82B23E9
:10594800C3F82C23A3F83023C3F8346383F8454302
:1059580083F8462383F84723C3F84823A3F84C2346
:10596800C3F8506383F8001383F81C1383F83813C3
:10597800C3F83CB383F85413C3F84053D74D83F8A6
:105988006143C3F86C634FF4403683F87D434FF4AA
:105998004024C3F858E383F8622383F86323C3F8E9
:1059A8006423A3F86823C3F874E3A3F87E23A3F859
:1059B800842383F88C03C3F8902383F89923A3F8EE
:1059C8009A2383F8A803C3F8AC23C3F8B04383F839
:1059D800B52383F8B62383F8B723C3F8B823A3F80D
:1059E800BC23C3F85C93BE4CC3F87883C3F880C368
:1059F800C3F89CC34FF0080CC3F88853C3F8A453EA
:105A0800C3F8C05383F87013A3F8A0A3C3F8946332
:105A1800B44EDFF80093DFF80083DFF800E3C3F843
:105A28002044C3F8C863B04CC3F8E463C3F8006407
:105A3800C3F81C644FF0405683F8C40383F8D1239D
:105A480083F8D22383F8D323C3F8D423A3F8D82325
:105A5800C3F8DC5383F8E00383F8ED2383F8EE23DF
:105A680083F8EF23C3F8F023A3F8F423C3F8F8531B
:105A780083F8FC0383F8092483F80A2483F80B24A9
:105A8800C3F80C24A3F81024C3F8145483F818049A
:105A980083F82524A3F82624C3F8CCE3C3F8E893B5
:105AA800C3F80484C3F82844C3F83C644FF4402680
:105AB800C3F844444FF00C04C3F890644FF0080650
:105AC800A3F848444FF04044DFF854E2C3F8584480
